:03000000020A3BB6
:0C0A3B00787FE4F6D8FD758121020A8264
:100800005072696E7465722052756E6E696E670DF6
:100810000A005072696E74657220446F6E650D0A2D
:10082000004361726420496E0D0A004361726420C6
:100830004F75740D0A0043617368204F7574203141
:100840000D0A0043617368204F7574203120446F96
:100850006E650D0A0043617368204F757420320D78
:100860000A0043617368204F7574203220446F6E14
:10087000650D0A00444F4F522053574954434820B6
:1008800031206973204F50454E0D0A00444F4F529E
:1008900020535749544348203120697320434C4F1B
:1008A0005345440D0A00444F4F5220535749544377
:1008B000482032206973204F4F50454E0D0A0044A6
:1008C0004F4F5220535749544348203220697320D8
:1008D000434C4F5345440D0A00444F4F5220535749
:1008E000495443482033206973204F50454E0D0A28
:1008F00000444F4F522053574954434820332069F6
:100900007320434C4F5345440D0A00444F4F52202F
:100910005357495443482034206973204F50454E63
:100920000D0A00444F4F5220535749544348203436
:0D09300020697320434C4F5345440D0A00CD
:100B5100C185C186C187C188C101C102C103C10468
:100B61000210000002120000021400000216000030
:100B710002080000020A0000020C0000020E000040
:020B8100C100B1
:100BAC00759850438E40538EFE53890F758BE075AC
:0D0BBC008DFEC2ABD28ED288D2A8D2AF225D
:100B84008B198A1A891BAB19AA1AA91B120BC960E3
:100B940016051BE51B7002051A14F9120BC9F59909
:080BA4003099FDC29980DF22A7
:100BE200C2AFC200D2018E088F09D2ABD2AF7BFF57
:070BF2007A087900020B8470
:100C3E00C2AFC201D200D2AF7BFF7A087912020B8B
:010C4E008421
:100BF900C2AFC200D2028E0A8F0BD2ABD2AF7BFF3B
:070C09007A087921020B8437
:100C4F00C2AFC202D200D2AF7BFF7A08792B020B60
:010C5F008410
:100C1000C2AFC200D2038E0C8F0DD2ABD2AF7BFF1E
:070C20007A087936020B840B
:100C6000C2AFC203D200D2AF7BFF7A087943020B36
:010C700084FF
:100C2700C2AFC200D2048E0E8F0FD2ABD2AF7BFF02
:070C37007A087955020B84D5
:100C7100C2AFC204D200D2AF7BFF7A087962020B05
:010C810084EE
:03001B00020AC70F
:100AC700C0E0C0D03001190511E51170020510C34F
:100AD7009509E51095084008751000751100B2A634
:100AE7003002190513E51370020512C3950BE512C1
:100AF700950A4008751200751300B2A53003190551
:100B070015E51570020514C3950DE514950C4008FD
:100B1700751400751500B2A43004190517E5177090
:100B2700020516C3950FE516950E40087516007554
:100B37001700B2A330000EC2AFC2A6C2A5C2A4C29C
:0A0B4700A3C200D2AFD0D0D0E0323C
:10093D00120BACC2A6C2A5C2A4C2A3D2AF30986A94
:10094D00859918C298E51824BFB40800505C900929
:10095D006975F003A4C58325F0C58373020981026F
:10096D00098A02098F02099802099D0209A6020946
:10097D00AB0209B47F887E13120BE2802D120C3E60
:10098D0080287F887E13120BF9801F120C4F801A5E
:10099D007F887E13120C108011120C60800C7F88E2
:0A09AD007E13120C278003120C7158
:1009B700A2A7300501B35016A2A792057BFF20A777
:1009C700067A08797480047A08798C120B84A2C697
:1009D700300601B35016A2C692067BFF20C6067AE0
:1009E7000879A680047A0879BF120B84A28230079F
:1009F70001B35016A28292077BFF2082067A0879FC
:100A0700D980047A0879F1120B84A285300801B3E2
:100A1700400302094AA285920820850C7BFF7A09C8
:100A2700790B120B8402094A7BFF7A097923120B8F
:040A37008402094AE2
:100A470002093DE493A3F8E493A34003F68001F27F
:100A570008DFF48029E493A3F85407240CC8C333B0
:100A6700C4540F4420C8834004F456800146F6DF7F
:100A7700E4800B0102040810204080900B51E47EB3
:100A8700019360BCA3FF543F30E509541FFEE49374
:100A9700A360010ECF54C025E060A840B8E493A33B
:100AA700FAE493A3F8E493A3C8C582C8CAC583CA66
:100AB700F0A3C8C582C8CAC583CADFE9DEE780BE1E
:010B83000071
:100BC900BB010689828A83E0225002E722BBFE022A
:090BD900E32289828A83E493225D
:00000001FF
